:020000040000FA
:060000000A128A110C280F
:10000800FE00030EF1000A08F2000A128A116A289B
:100018000A128A110F2883010A128A1197280330BD
:10002800831603178800890103308316031385009C
:1000380087018312031385018601870188018901DD
:10004800831603130F178F160F160F148B170B1722
:100058000C17831203130C13831603139F131F1219
:100068009F12831203131F083F3980389F00C33043
:100078009F051F142130F300F30B40288316031348
:1000880007158714FF3092003F308312031397053A
:100098001708F0390C3897000F3095001D08F03913
:1000A8000C389D000F309B00CF3097051D129D1214
:1000B8008C100330920412158C1C63286428602865
:1000C8008C1083160313071187100800831203137B
:1000D8000C1F6F28702890281F0CF000700C0F3927
:1000E800003A031D7828792880281E08F00003109C
:1000F800700C7C3E95008F281F0CF000700C0F3997
:10010800013A031D882889288F281E08F00003104B
:10011800700C7C3E9B000C1372088A00710E8300E1
:10012800FE0E7E0E09000A128A1113200A128A1185
:10013800831203139F18A128A2289C281F0CF400DF
:10014800740C0F39013A031DAA28AB28AE28C33016
:100158009F05B2281F08C33904389F002130F400D6
:10016800F40BB428831203139F149C280A128A11D3
:020178000C2851
:04400E00C420FF3F8C
:00000001FF
